{
  "address": "0x435383c2336a298454D68E02620Aeec5a0407335",
  "abi": [
    {
      "inputs": [],
      "payable": false,
      "stateMutability": "nonpayable",
      "type": "constructor"
    },
    {
      "constant": false,
      "inputs": [
        {
          "internalType": "bytes",
          "name": "transactions",
          "type": "bytes"
        }
      ],
      "name": "multiSend",
      "outputs": [],
      "payable": false,
      "stateMutability": "nonpayable",
      "type": "function"
    }
  ],
  "transactionHash": "0x3728f26419d5ad465183ddb449265ffce7f4c8a96edd40b5d892a75b8f04442f",
  "args": [],
  "solcInputHash": "cf171c7950e28f9618ac60620c3ba022",
  "bytecode": "0x608060405234801561001057600080fd5b5060405180807f6d756c746973656e642e67756172642e627974657333320000000000000000008152506017019050604051809103902060008190555061026c8061005c6000396000f3fe608060405234801561001057600080fd5b506004361061002b5760003560e01c80638d80ff0a14610030575b600080fd5b6100e96004803603602081101561004657600080fd5b810190808035906020019064010000000081111561006357600080fd5b82018360208201111561007557600080fd5b8035906020019184600183028401116401000000008311171561009757600080fd5b91908080601f016020809104026020016040519081016040528093929190818152602001838380828437600081840152601f19601f8201169050808301925050505050505091929192905050506100eb565b005b60405180807f6d756c746973656e642e67756172642e6279746573333200000000000000000081525060170190506040518091039020600054141561017b576040517f08c379a00000000000000000000000000000000000000000000000000000000081526004018080602001828103825260308152602001806102086030913960400191505060405180910390fd5b805160205b81811015610202578083015160f81c6001820184015160601c6015830185015160358401860151605585018701600085600081146101c557600181146101d5576101e0565b6000808585888a5af191506101e0565b6000808585895af491505b5060008114156101ef57600080fd5b8260550187019650505050505050610180565b50505056fe4d756c746953656e642073686f756c64206f6e6c792062652063616c6c6564207669612064656c656761746563616c6ca265627a7a72315820c6cc86ea74be5ed6849b2e13f5d5b488349747f6605fa03d277cf7031bf1a49864736f6c63430005110032",
  "devdoc": {
    "author": "Nick Dodson - <nick.dodson@consensys.net>Gonçalo Sá - <goncalo.sa@consensys.net>Stefan George - <stefan@gnosis.io>Richard Meissner - <richard@gnosis.io>",
    "methods": {
      "multiSend(bytes)": {
        "details": "Sends multiple transactions and reverts all if one fails.",
        "params": {
          "transactions": "Encoded transactions. Each transaction is encoded as a packed bytes of                     operation as a uint8 with 0 for a call or 1 for a delegatecall (=> 1 byte),                     to as a address (=> 20 bytes),                     value as a uint256 (=> 32 bytes),                     data length as a uint256 (=> 32 bytes),                     data as bytes.                     see abi.encodePacked for more information on packed encoding"
        }
      }
    },
    "title": "Multi Send - Allows to batch multiple transactions into one."
  },
  "userdoc": {
    "methods": {}
  },
  "storageLayout": {
    "storage": [
      {
        "astId": 2275,
        "contract": "@gnosis.pm/safe-contracts/contracts/libraries/MultiSend.sol:MultiSend",
        "label": "guard",
        "offset": 0,
        "slot": "0",
        "type": "t_bytes32"
      }
    ],
    "types": {
      "t_bytes32": {
        "encoding": "inplace",
        "label": "bytes32",
        "numberOfBytes": "32"
      }
    }
  }
}